:020000040800F2
:1000000000500020310200082902000829020008DF
:100010002902000829020008290200080000000047
:10002000000000000000000000000000290200089D
:100030002902000800000000290200082902000827
:1000400029020008290200082902000829020008E4
:100050000000000029020008290200082902000807
:1000600029020008290200082902000829020008C4
:1000700029020008290200082902000829020008B4
:1000800029020008290200082902000829020008A4
:100090002902000829020008290200082902000894
:1000A0002902000829020008290200082902000884
:1000B0002902000829020008290200082902000874
:1000C0002902000829020008290200082902000864
:1000D0002902000829020008290200082902000854
:1000E0002902000829020008290200080000000077
:1000F0000000000000000000000000000000000000
:100100000000000000000000290200082902000889
:100110002902000829020008290200082902000813
:100120002902000829020008290200082902000803
:1001300029020008290200082902000829020008F3
:1001400029020008290200082902000829020008E3
:10015000A3F5803A704700BF174B002B08BF134B25
:100160009D46FFF7F5FF00218B460F461348144AC2
:10017000121A00F0CFFA0E4B002B00D098470D4B0F
:10018000002B00D098470020002104000D000D48EE
:10019000002802D00C4800F03DFC00F095FB200048
:1001A000290000F013F800F0CDF800BF00000800AF
:1001B0000000000000000000000000007C0500209E
:1001C000C4080020150A00083515000880B483B063
:1001D00000AF00237B60114B9B69104A43F0100372
:1001E00093610F4B5B680E4A23F4700353600C4B12
:1001F0005B680B4A43F4801353607B68094A93425F
:1002000008DD074BDB68064A83F40053D360002304
:100210007B60F2E77B6801337B60EEE70010024011
:1002200000100140A086010080B400AF00BFFDE7D0
:1002300080B586B000AF1B4A1B4BD31A7B601A4BAC
:100240007B611A4B3B610023FB600AE03A69531C57
:100250003B617B69591C796112781A70FB68013324
:10026000FB60FA687B689A42F0D3114A114BD31AAB
:100270007B60104B7B610023BB6007E07B695A1CED
:100280007A6100221A70BB680133BB60BA687B6870
:100290009A42F3D300F018FBFFF798FF00BF18371E
:1002A000BD4680BD7005002000000020D816000863
:1002B000C40800207C0500200348044B834202D080
:1002C000034B03B1184770477805002078050020DC
:1002D000000000000548064B1B1AD90F01EBA301D3
:1002E000491002D0034B03B118477047780500202E
:1002F000780500200000000010B5064C237843B9B3
:10030000FFF7DAFF044B13B10448AFF30080012379
:10031000237010BD7C05002000000000CC160008F2
:1003200008B5054B1BB105490548AFF30080BDE892
:100330000840FFF7CFBF00BF00000000800500208D
:10034000CC16000808B50021044600F003FB034B5F
:100350001B6803B19847204601F082F9D0060020BF
:10036000024A0349034800F069B900BF04000020B5
:1003700051120008180000200C4B416810B599423A
:10038000044601D000F064FFA168094B994202D0F5
:10039000204600F05DFFE168064B994204D02046FC
:1003A000BDE8104000F054BF10BD00BF980500200C
:1003B000000600206806002008B54B6EDA0702D45C
:1003C0008B899B0501D5002008BD886D00F0AEFA31
:1003D000002008BD08B54B6EDA0702D48B899B0557
:1003E00001D5002008BD886D00F0A8FA002008BDE6
:1003F0002DE9F84300250423304C314A3149DFF818
:10040000C890DFF8C880324F324E116004F15C00B2
:1004100029460822C4E90335C4E90055C4E9055555
:10042000A560656600F076F904F15800C4E9074953
:10043000C4E90987E66200F071FA274B29460822D1
:1004400004F1C4006367C4E91A55C4E91E55256761
:10045000C4F8CC50C4F8805000F05CF904F1680393
:1004600004F1C000C4F88430C4E92298C4E92476B9
:1004700000F054FA194B294604F596700822C4F886
:10048000DC30C4E93455C4E93855C4F8D850C4F850
:100490003451C4F8E85000F03DF904F1D003C4E948
:1004A0003D87C4F8F09004F59470C4F8FC60C4F87B
:1004B000EC30BDE8F84300F031BA00BF98050020E9
:1004C000D00600206103000881060008A906000884
:1004D000E90600080D0700080900010012000200EB
:1004E000F8B506462A4800F021FA2A4B1B68002B73
:1004F00043D0294FD7E90134013B04D524E05A1CED
:1005000004F1680420D0B4F90C50013B002DF6D161
:10051000224B04F15800E360656600F0FFF91C48C7
:1005200000F00CFA08222946C4E90155C4E9045533
:100530002560A56104F15C0000F0ECF8C4E90C55FD
:10054000C4E911552046F8BD3D680DB12F46D1E7ED
:100550004FF4D671304600F0BBFB044680B1042353
:100560000560294625460C304FF4D072A0606360C8
:1005700000F0D0F83C602F46BCE7FFF739FFB8E742
:1005800003483C6000F0DAF90C233360DAE700BF7F
:10059000F4060020D0060020040000200100FFFF28
:1005A00010B504460A4800F0C1F9636B23B9094B42
:1005B000094A1B68626323B1BDE81040044800F09B
:1005C000BDB9FFF715FFBDE81040014800F0B6B90E
:1005D000F4060020D006002079030008014800F04E
:1005E000A5B900BFF4060020014800F0A7B900BF7C
:1005F000F406002008B5054800F098F9BDE8084069
:100600000020034A034900F019B800BFF406002097
:1006100004000020B903000808B50020044A054979
:1006200000F00CF8BDE80840034800F087B900BFAF
:1006300004000020D5030008F40600202DE9F8434B
:100640004FF0000980460F461646D6E90154013D99
:1006500010D4A389012B08D9B4F90E30013304D08A
:1006600021464046B84749EA0009013D6B1C04F1A8
:100670006804EED13668002EE7D14846BDE8F8831D
:1006800010B50C46B1F90E1000F0F2F8002803DBAB
:10069000236D0344236510BDA38923F48053A381F4
:1006A00010BD00BF002070472DE9F0410C46B1F9A4
:1006B0000C101F46CB05054616460BD421F480517D
:1006C000A1813B4632462846B4F90E10BDE8F04100
:1006D00000F0E4B8B4F90E100223002200F0B2F8E2
:1006E000B4F90C10EAE700BF10B50C46B1F90E10D2
:1006F00000F0A8F8B4F90C30421C0EBF23F480536C
:1007000043F480532065A38110BD00BFB1F90E10E2
:1007100000F050B870B5860747D0541E002A3ED06E
:100720000346CAB201E0013C39D303F8012B9D070F
:10073000F9D1032C2CD9CDB205EB05250F2C1A4687
:1007400005EB054534D9A4F1100C2CF00F0603F18C
:10075000100EB6444FEA1C1CC2E90055C2E902550E
:1007600010327245F8D10CF1010214F00C0F03EBBA
:10077000021204F00F0C13D0ACF1040323F00303B6
:100780000433134442F8045B9342FBD10CF003049E
:100790002CB1C9B21C4403F8011BA342FBD170BDAC
:1007A00064461346002CF4D1F9E703461446C0E72B
:1007B000A446E1E7002238B5064D044608462A6003
:1007C00000F020FF431C00D038BD2B68002BFBD06D
:1007D000236038BDD4060020194B1B6883422ED0FD
:1007E000416C70B5054681B100268C593CB121465B
:1007F0002468284600F070F9002CF8D1696C0436A2
:10080000802EF2D1284600F067F9A96B11B1284675
:1008100000F062F92C6C34B121462468284600F0BF
:100820005BF9002CF8D1E96C11B1284600F054F9BD
:100830006B6B1BB12846BDE87040184770BD704710
:100840001000002038B50C46114600228446074DA2
:1008500020462A601A46644600F0DCFE431C00D0A5
:1008600038BD2B68002BFBD0236038BDD406002098
:1008700038B50C46114600228446074D20462A60B2
:100880001A46644600F0CEFE431C00D038BD2B68EB
:10089000002BFBD0236038BDD406002038B50C46B1
:1008A000114600228446074D20462A601A466446B7
:1008B00000F0CEFE431C00D038BD2B68002BFBD0CF
:1008C000236038BDD406002070B50F4B0F4DAB42EE
:1008D000A3EB050607D00024B61055F8043B0134FD
:1008E0009847A642F9D800F0BDFE094D094B5E1BA2
:1008F000AB424FEAA60606D0002455F8043B01346B
:100900009847A642F9D870BD000000000000000022
:100910000000000000000000704700BF704700BFEB
:10092000704700BF704700BF704700BF704700BFEF
:100930000120704701207047704700BF704700BF1B
:10094000024B13B1024800F065B870470000000088
:10095000351500082DE9F04F82462C4B2C4F83B003
:1009600018688B46CDF804A0FFF7E0FF3E684EB351
:100970004FF000094FF001087468651E22D401345D
:1009800006EB8404BBF1000F23D173682268013B9E
:10099000AB420CBF7560C4F8009072B1D6F88811F4
:1009A00008FA05F30B42D6F804A01CD190477368EF
:1009B0003A68534523D1B24221D1013D6B1CA4F1C9
:1009C0000404DFD1114B186803B0BDE8F04FFFF706
:1009D000B5BFD4F800315B45D7D0013D6A1CA4F106
:1009E0000404F6D1EEE7D6F88C01D4F88010034267
:1009F00009D10198904773683A685345DBD0002AC3
:100A0000E0D01646B8E708469047D0E758010020E6
:100A1000F8060020002301461A46184600F0ACBD37
:100A20002DE9F84306460820894600F097FD054663
:100A3000DFF89880304600F0FFFBD8F808305F6898
:100A400027F00307A7F11104A4EB09042C44B4FB1D
:100A5000F5F4013C05FB04F4A54208DC0021304616
:100A600000F056FDD8F808303B44984205D0304697
:100A700000F0E8FB0020BDE8F8833046614200F05A
:100A800047FD01300FD0124AD8F808303F1B47F01D
:100A900001075F60136830461B1B136000F0D2FB38
:100AA0000120BDE8F8830021304600F031FDD8F880
:100AB0000820831A0F2BDADD43F001035360054B46
:100AC00003491B68C01A0860D1E700BF6801002015
:100AD000FC0600205C01002000297CD0F8B50C4603
:100AE000064600F0A9FB54F8043C764FA4F1080533
:100AF00023F001016818D7F808C04268844522F045
:100B0000030200F08380DB07426000EB020C33D469
:100B100054F8084CDCF804302D1B2144AC6807F174
:100B2000080C644503F0010364D0D5F80CE0C4F868
:100B30000CE0CEF80840002B00F0818041F001036A
:100B40006B600160B1F5007F22D20122CB08490918
:100B50008A40796801330A437A6057F8331007EB0B
:100B6000C302083AC5E9021247F83350CD60304657
:100B7000BDE8F84000F066BBDCF80430DB072BD59D
:100B800041F00103B1F5007F44F8043C0160DCD37F
:100B9000B1F5206F4FEA512353D28B0903F139008D
:100BA00003F13802C300F818FB580838984203D103
:100BB00061E09B68984204D05A6822F003028A429E
:100BC000F7D8D868C5E9023085603046DD60BDE8F9
:100BD000F84000F037BB7047114407F1080C8368F8
:100BE00063453FD0C268DA60936041F001036B60F7
:100BF0006950A7E7002B5FD10A44D0E90213CB600C
:100C0000996042F001036B60AA50B0E70A44D9072B
:100C100007D454F8083CED1A1A44D5E90213CB6006
:100C2000996042F001036B60274BBD601B689342E3
:100C30009DD8264B30461968FFF7F2FE97E711441E
:100C4000CDE7142B08D9542B1DD80B0B03F16F00E3
:100C500003F16E02C300A6E703F15C0003F15B023F
:100C6000C300A0E741F00103C7E90455C5E902CC80
:100C70006B6069507BE70121921001FA02F27968FA
:100C80000A437A609EE7B3F5AA7F06D8CB0B03F13F
:100C9000780003F17702C30085E740F25452934293
:100CA00006D88B0C03F17D0003F17C02C3007AE7C8
:100CB0004FF47E737E2276E741F001036B600160A2
:100CC00055E700BF68010020600100202C070020CC
:100CD0002DE9F04F01F10B05162D064683B024D8FF
:100CE000102900F2AD8000F0A7FA102518234FF06C
:100CF000020CB84F3B445C68A3F10802944200F038
:100D00001D8130466368E268A16823F00303CA606E
:100D1000234491605A68083442F001025A6000F09E
:100D200091FA204603B0BDE8F08F35F0070500F1D9
:100D30008780A94200F2848000F07EFAB5F5FC7F3E
:100D4000C0F06F816B0A7FD0042B00F21E81AB09CB
:100D500003F1390C03F1380E4FEACC009D4F3844B3
:100D600044680838A04207D10DE0002AE16880F20B
:100D7000DF80884207D00C46636823F003035A1BC8
:100D80000F2AF2DDF446DFF850823C69444500F05A
:100D9000BC80636823F00309A9EB05030F2B00F364
:100DA0004581002BC7E9048880F22F81B9F5007FC7
:100DB000D7F804E080F0C98001234FEAD9014FEA57
:100DC0005919194403FA09F357F831204EEA030E72
:100DD00007EBC103083BA260E360C7F804E047F8F3
:100DE0003140D46001204FEAAC039840704532D8BE
:100DF00010EA0E0F07D12CF0030C400010EA0E0F82
:100E00000CF1040CF9D007EBCC0AD646E146DEF82B
:100E10000C300BE059681C4621F003014A1B0F2AD5
:100E2000DB6800F3BF80002A80F2E2809E45F1D1AA
:100E300009F1010919F0030F0EF1080EE7D11FE1C6
:100E40000C23336000246CE74FF400704FF0400C2B
:100E50004FF03F0E82E7BC68636823F00309A945A1
:100E600003D3A9EB05030F2B52DC5C4B08201B6856
:100E700003F1100804EB0903009300F06FFB584ADC
:100E800083461368A844013305D008F1FF38804435
:100E9000434203EA08084146304600F039FBB0F10E
:100EA000FF3F82464E4A00F0DC8004EB0903834298
:100EB00000F2D5804B4B0BF1FF311868404484465B
:100EC000186040F0FB801AEA010F40F0F780D7F875
:100ED00008A0C84448F00102CAF804205446424B16
:100EE0001968814238BF1860404B1968814238BF89
:100EF000186022F00308A845A8EB050301D30F2BC7
:100F000006DC304600F09EF99CE7D7F804E069E77C
:100F1000621943F0010345F0010565603046BA608F
:100F20000834536000F08EF9204603B0BDE8F08F1E
:100F3000A2683046D16023448A60EBE6DC68A342B5
:100F40007FF4DFAE0CF1020C1DE7B9F5206F4FEA1C
:100F500059227DD3142A00F2118102F15C03DB00D7
:100F60005B32F918FB580839994203D1ECE09B68D1
:100F7000994204D05A6822F003024A45F7D8D9684A
:100F8000C4E902318C60DC602CE7142B6CD9542B43
:100F900000F2FD802B0B03F16F0C03F16E0E4FEA94
:100FA000CC00DBE6D4F808C03046661945F00105F0
:100FB0006560CCF80C30C3F808C042F00103C7E903
:100FC0000466C6E902887360625000F03BF9083499
:100FD000A7E600BF68010020700100202C07002058
:100FE0005C010020FC0600202807002024070020C8
:100FF00021444A68304642F001024A6054F8082F02
:10100000D3609A6000F01EF98BE6A144D9F8043051
:10101000304643F00103C9F8043000F013F90834F6
:101020007FE64FEAD50C05F1080362E6621943F04A
:10103000010145F0010565603046C7E90422C2E9B7
:101040000288516044F8093000F0FCF8083468E682
:101050004FEA991202F13903DB00383281E7BC42D2
:1010600024D0BC68626844E703F15C0C03F15B0EBA
:101070004FEACC0072E65AF80839534540F0D88060
:101080001CF0030F0CF1FF3CF5D17B6823EA000351
:101090007B60400098423FF6DEAE18B9DBE64000C8
:1010A00009F104091842FAD0CC46ACE6614B0BF1C9
:1010B000FF31186808EB000CC3F800C0106801305D
:1010C00070D004EB0902AAEB020262441A601AF023
:1010D0000702CDE9002340D0C2F108029244D04477
:1010E00008EA01005A44121A02EA010B5946304636
:1010F00000F00EFA421C019B71D0A0EB0A0000EB3D
:101100000B08186848F001025844BC42C7F808A010
:101110001860CAF804203FF4E1AEB9F10F0F44D9CA
:101120004FF0050C6168A9F10C0222F0070201F0F2
:101130000101114361600F2A04EB0201C1E901CCF6
:1011400055D8DAF80420C9E60120921000FA02F21C
:101150004EEA020EC7F804E012E70AEB08020A4062
:10116000ABEB020202EA010B5946304600F0D0F91F
:10117000431C019BC1D1DDF800B0C2E7542A18D846
:101180004FEA193202F16F03DB006E32E9E6B3F584
:10119000AA7F18D8EB0B03F1780C03F1770E4FEA16
:1011A000CC00DBE5C2F800A091E70123CAF80430C7
:1011B000A7E6B2F5AA7F25D84FEAD93202F1780323
:1011C000DB007732CDE640F25452934225D8AB0C87
:1011D00003F17D0C03F17C0E4FEACC00BEE5009AD2
:1011E0004FF0000B083A9044A8EB0A0889E7304614
:1011F00004F108010093FFF76FFC009BD7F808A0EB
:1012000018689EE740F254539A420DD84FEA99422B
:1012100002F17D03DB007C32A3E64FF47E704FF0D9
:101220007F0C4FF07E0E99E54FF47E737E2298E698
:101230007B682EE7FC0600200148FFF777BB00BF64
:10124000E80600200148FFF779BB00BFE806002050
:1012500070B500293FD006460C4610B1436B002BF9
:101260003CD0636EB4F90C20DD0732D4900538D53C
:101270002146304600F054F8E36A054633B1304663
:10128000E16998470028B8BF4FF0FF35A3891A06D7
:1012900039D4216B41B104F14003994202D0304668
:1012A000FFF71AFC00232363616C21B13046FFF77E
:1012B00013FC00236364FFF791F90022636EA2819F
:1012C000DB071CD5A06DFFF72DFBFFF78DF9284636
:1012D00070BD002ACCD10025284670BDFFF760F90B
:1012E000BFE7A06DFFF722FBB4F90C30002BBFD194
:1012F000636ED907EFD4A06DFFF720FBEBE7A06D7D
:10130000FFF71CFBDEE730462169FFF7E5FBC0E78E
:10131000024B01461868FFF79BBF00BF100000207A
:10132000B1F90C20F8B516070C46074648D44968B1
:1013300042F400630029A3815FDDA56A002D3DD042
:10134000002112F480523E683960E16961D10123C5
:101350003846A847451C02466AD0B4F90C30A56A45
:10136000E169580705D56368D21A236B0BB1E36BAB
:10137000D21A00233846A847411C4CD13968B4F929
:101380000C301D293FD82F4ACA40D2073BD5002236
:1013900062602269DD04226023F40062A28101D52B
:1013A000002943D0216B3E6041B104F140039942D2
:1013B00002D03846FFF790FB002323630020F8BDDE
:1013C0000E69002EFAD0920718BF00230D6808BFDF
:1013D0004B690E60AD1B8B600CE02B463246D4F897
:1013E00024C03846E169E047B0F1000CA5EB0C05DC
:1013F000664406DD002DF0DCE0E7E16B00299CDCB3
:10140000DCE7B4F90C3043F040034FF0FF30A38128
:10141000F8BD226DA5E70022B4F90C3062602269A4
:10142000226023F40062DB04A281BBD52065B9E70A
:101430003B68002B91D01D2B01D0162BE1D13E60D3
:10144000BCE700BF0100402038B505460C4608B196
:10145000436B03B3B4F90C0088B1636EDB0701D4AE
:1014600081050FD528462146FFF75AFF636E0546D2
:10147000DA0702D4A3899B0508D5284638BD05465E
:10148000284638BDA06DFFF751FAEBE7A06DFFF7D6
:1014900055FA284638BDFFF783F8DBE750B338B577
:1014A000174B04461D680DB16B6BBBB1B4F90C0052
:1014B00088B1636EDB0701D4810513D52846214628
:1014C000FFF72EFF636E0546DA0702D4A3899B055A
:1014D0000CD5284638BD0546284638BD2846FFF7B6
:1014E0005FF8E3E7A06DFFF721FAE7E7A06DFFF7EC
:1014F00025FAEEE7034A04490448FFF79FB800BF06
:1015000010000020040000204914000818000020EA
:10151000002238B5064D044608462A6000F08AF8D5
:10152000431C00D038BD2B68002BFBD0236038BD96
:10153000D406002038B5074D074C2C1BA41005D04D
:10154000013C55F8043D9847002CF9D1BDE83840DE
:1015500000F08EB80000000000000000082802D152
:101560004FF48050704708B500F046F81622034645
:101570004FF0FF301A6008BD2DE9F8431B4D0646B9
:10158000286898460F469146FFF7D0F9184B1C681B
:101590001CB3286865681F2D22DC4EB96B1C023510
:1015A000636044F82570FFF7C9F90020BDE8F883AF
:1015B000012304EB8501C1F88890D4F88821AB4061
:1015C0001A43022EC4F88821C1F80881E6D1D4F864
:1015D0008C211A43C4F88C21E0E7064C1C60D8E744
:1015E000FFF7ACF94FF0FF30E0E700BF58010020F3
:1015F000F806002030070020014B1868704700BF34
:10160000100000205822024B4FF0FF301A60704744
:10161000D40600205822024B4FF0FF301A6070476A
:10162000D40600205822024B4FF0FF301A6070475A
:10163000D4060020044A05491368002B08BF0B4656
:101640001844106018467047C0080020C4080020E5
:101650005822024B4FF0FF301A607047D40600202A
:10166000FEE700BFF8B500BFF8BC08BC9E46704757
:10167000F8B500BFF8BC08BC9E4670474D61686D68
:101680006F7564003E410C411141274136410341D1
:10169000064115410F410E412641134129410241A6
:1016A00019410A410B4100003E410C4111412741C3
:1016B00036410341064115410F410E412641134178
:0C16C0002941024119410A410B41000080
:0416CC00000000001A
:0816D00080EAFF7F0100000029
:1016D8000000000000000000030000009805002042
:1016E80018000020000000000000000098050020FD
:1016F800000600206806002000000000000000002E
:1017080000000000000000000000000000000000D1
:1017180000000000000000000000000000000000C1
:1017280000000000000000000000000000000000B1
:1017380000000000000000000000000000000000A1
:101748000000000000000000000000000000000091
:101758000000000000000000000000000000000081
:101768000000000000000000000000000000000071
:101778000000000000000000000000000000000061
:1017880001000000000000000E33CDAB34126DE6FE
:10179800ECDE05000B000000000000000000000067
:1017A8000000000000000000000000000000000031
:1017B8000000000000000000000000000000000021
:1017C8000000000000000000000000000000000011
:1017D8000000000000000000000000000000000001
:1017E80000000000000000000000000000000000F1
:1017F80000000000000000000000000000000000E1
:1018080000000000000000000000000000000000D0
:1018180000000000000000000000000000000000C0
:101828000000000000000000F0060020FFFFFFFF9E
:10183800000002000000000000000000000000009E
:10184800680100206801002070010020700100205C
:10185800780100207801002080010020800100200C
:1018680088010020880100209001002090010020BC
:101878009801002098010020A0010020A00100206C
:10188800A8010020A8010020B0010020B00100201C
:10189800B8010020B8010020C0010020C0010020CC
:1018A800C8010020C8010020D0010020D00100207C
:1018B800D8010020D8010020E0010020E00100202C
:1018C800E8010020E8010020F0010020F0010020DC
:1018D800F8010020F801002000020020000200208A
:1018E8000802002008020020100200201002002038
:1018F80018020020180200202002002020020020E8
:101908002802002028020020300200203002002097
:101918003802002038020020400200204002002047
:1019280048020020480200205002002050020020F7
:1019380058020020580200206002002060020020A7
:101948006802002068020020700200207002002057
:101958007802002078020020800200208002002007
:1019680088020020880200209002002090020020B7
:101978009802002098020020A0020020A002002067
:10198800A8020020A8020020B0020020B002002017
:10199800B8020020B8020020C0020020C0020020C7
:1019A800C8020020C8020020D0020020D002002077
:1019B800D8020020D8020020E0020020E002002027
:1019C800E8020020E8020020F0020020F0020020D7
:1019D800F8020020F8020020000300200003002085
:1019E8000803002008030020100300201003002033
:1019F80018030020180300202003002020030020E3
:101A08002803002028030020300300203003002092
:101A18003803002038030020400300204003002042
:101A280048030020480300205003002050030020F2
:101A380058030020580300206003002060030020A2
:101A48006803002068030020700300207003002052
:101A58007803002078030020800300208003002002
:101A680088030020880300209003002090030020B2
:101A78009803002098030020A0030020A003002062
:101A8800A8030020A8030020B0030020B003002012
:101A9800B8030020B8030020C0030020C0030020C2
:101AA800C8030020C8030020D0030020D003002072
:101AB800D8030020D8030020E0030020E003002022
:101AC800E8030020E8030020F0030020F0030020D2
:101AD800F8030020F8030020000400200004002080
:101AE800080400200804002010040020100400202E
:101AF80018040020180400202004002020040020DE
:101B0800280400202804002030040020300400208D
:101B1800380400203804002040040020400400203D
:101B280048040020480400205004002050040020ED
:101B3800580400205804002060040020600400209D
:101B4800680400206804002070040020700400204D
:101B580078040020780400208004002080040020FD
:101B680088040020880400209004002090040020AD
:101B78009804002098040020A0040020A00400205D
:101B8800A8040020A8040020B0040020B00400200D
:101B9800B8040020B8040020C0040020C0040020BD
:101BA800C8040020C8040020D0040020D00400206D
:101BB800D8040020D8040020E0040020E00400201D
:101BC800E8040020E8040020F0040020F0040020CD
:101BD800F8040020F804002000050020000500207B
:101BE8000805002008050020100500201005002029
:101BF80018050020180500202005002020050020D9
:101C08002805002028050020300500203005002088
:101C18003805002038050020400500204005002038
:101C280048050020480500205005002050050020E8
:101C38005805002058050020600500206005002098
:041C4800210300086C
:041C4C00F902000891
:041C5000410900083E
:0400000508000231BC
:00000001FF
